:100000000C942A000C943F000C943F000C943F0089
:100010000C943F000C943F000C943F000C943F0064
:100020000C943F000C943F000C943F000C943F0054
:100030000C943F000C943F000C943F000C943F0044
:100040000C943F000C943F000C943F000C943F0034
:100050000C943F0011241FBECFE5D8E0DEBFCDBF1A
:1000600010E0A0E6B0E0E8E2F2E002C005900D92F8
:10007000A23AB107D9F70E94D1000C9412010C9456
:10008000000085BB8FE99FE00197F1F700C00000F9
:1000900080E882BB8FE99FE00197F1F700C0000084
:1000A00012BA9FEF20E782E0915020408040E1F7B4
:1000B00000C0000008958FEF84BB88E981BB88E30E
:1000C0000E9441008FE99FE00197F1F700C0000016
:1000D00081E00E9441008FE99FE00197F1F700C0A5
:1000E00000008EE00E9441008FE99FE00197F1F748
:1000F00000C0000080E80E9441008FE99FE0019766
:10010000F1F700C00000089585BB88E882BB8FE945
:100110009FE00197F1F700C0000088E082BB9FEFED
:1001200020E782E0915020408040E1F700C00000CD
:100130000895CF93DF93EC018991811103C0DF9182
:10014000CF9108950E9484008FE99FE00197F1F715
:1001500000C00000F1CF8130910589F034F460587F
:100160007F4F892B49F060E007C08230910551F044
:100170006C527F4F0397B9F7862F0C94410060545F
:100180007F4FFACF6C567F4FF7CF81E00C94410040
:100190008CE00C9441008EE00C9441008FE00C94B4
:1001A00041000E945B0080E690E00E9499000E945E
:1001B000CE0070E060E081E090E00E94AB0086E657
:1001C00090E00E94990070E060E082E090E00E9480
:1001D000AB008AE790E00E94990070E060E083E065
:1001E00090E00E94AB008FE890E00E9499002FEF12
:1001F00083E294EF215080409040E1F700C000007E
:100200000E94C5000E94C8002FEF83ED90E32150AB
:1002100080409040E1F700C000000E94CB0090E0D9
:0802200080E00895F894FFCF7F
:1002280048454C4C4F0048443434373830204C4310
:10023800442041504920464F5200415652204D49D2
:1002480043524F434F4E54524F4C4C455253004229
:100258005920505552414E4A4159204D4F48414E20
:02026800000094
:00000001FF
