:100000000C942A000C9447000C9447000C94470071
:100010000C9447000C9447000C9447000C94470044
:100020000C9447000C9447000C9447000C94470034
:100030000C9447000C9447000C9447000C94470024
:100040000C9447000C9447000C9447000C94470014
:100050000C94470011241FBECFE5D8E0DEBFCDBF12
:1000600010E0A0E6B0E0E2E5F6E002C005900D92F7
:10007000A63AB107D9F720E0A6EAB0E001C01D9288
:10008000A83AB207E1F70E94DF020C9427030C9410
:1000900000002091A6003091A70021153105A9F498
:1000A00085BB8FE99FE00197F1F700C0000082B3A4
:1000B000877E82BB979AEFE9FFE03197F1F700C0A6
:1000C000000082B3877682BB089521303105D1F5D7
:1000D00025B3982F907F2F70922B95BBEFE9FFE00F
:1000E0003197F1F700C0000092B3977E92BB979AC8
:1000F000EFE9FFE03197F1F700C0000092B3977687
:1001000092BBEFE9FFE03197F1F700C0000095B333
:10011000F0E18F9F900111249F70922B95BB82B3C9
:10012000877E82BB979A8FE99FE00197F1F700C025
:10013000000082B3877682BBEFE3FFE13197F1F7EE
:1001400000C0000008952FEF31EE44E02150304010
:100150004040E1F700C00000009721F08130910598
:1001600079F108951092A7001092A6008FEF84BB3A
:1001700081B3886981BB88E30E9449008FE99FE0D1
:100180000197F1F700C0000081E00E9449008FE96B
:100190009FE00197F1F700C000008EE00E94490047
:1001A0008FE99FE00197F1F700C0000080E80E940E
:1001B00049008FE99FE00197F1F700C00000089522
:1001C0009093A7008093A60084B3806F84BB81B313
:1001D000886981BB88E2D0CF2091A6003091A7002A
:1001E00021153105B1F485BB949882B3886882BB30
:1001F0008FE99FE00197F1F700C0000082B38F768E
:1002000082BB939AEFE9FFE03197F1F700C000005D
:10021000089521303105E1F725B3982F907F2F7095
:10022000922B95BB949892B3986892BBEFE9FFE04C
:100230003197F1F700C0000092B39F7692BB939A7A
:10024000EFE9FFE03197F1F700C0000095B3F0E16E
:100250008F9F900111249F70922B95BB949882B32D
:10026000886882BB8FE99FE00197F1F700C000002A
:1002700082B38F7682BB939AEFE3FFE13197F1F778
:10028000C5CFCF93DF93EC018991811103C0DF913A
:10029000CF9108950E94EC008FE99FE00197F1F75C
:1002A00000C00000F1CF8130910589F034F460582E
:1002B0007F4F892B49F060E007C08230910551F0F3
:1002C0006C527F4F0397B9F7862F0C944900605406
:1002D0007F4FFACF6C567F4FF7CF81E00E944900E5
:1002E00080E80C9449008CE00C9449008EE00C945A
:1002F00049008FE00C944900823499F01CF4813459
:1003000031F008958334B9F08434F9F008958AB354
:1003100021E030E001C0220F6A95EAF7822B8ABB08
:10032000089587B321E030E001C0220F6A95EAF713
:10033000822B87BB089584B321E030E001C0220FF7
:100340006A95EAF7822B84BB089581B321E030E0FF
:1003500001C0220F6A95EAF7822B81BB089582348F
:10036000E1F01CF4813431F00895833449F1843490
:10037000D1F108952AB381E090E0062E01C0880FE4
:100380000A94EAF7809582238ABB8BB301C0440F9D
:100390006A95EAF7842B8BBB089527B381E090E040
:1003A000062E01C0880F0A94EAF78095822387BB46
:1003B00088B301C0440F6A95EAF7842B88BB08957F
:1003C00024B381E090E0062E01C0880F0A94EAF77A
:1003D0008095822384BB85B301C0440F6A95EAF7F8
:1003E000842B85BB089521B381E090E0062E01C0E7
:1003F000880F0A94EAF78095822381BB82B301C0FB
:10040000440F6A95EAF7482B42BB0895CF93DF93D8
:10041000C82FD62F0E947C01C234F1F02CF4C134D5
:1004200089F0DF91CF910895C33401F1C434C9F745
:1004300082B321E030E001C0220FDA95EAF7822B87
:1004400082BBEFCF8BB321E030E001C0220FDA9501
:10045000EAF7822B8BBBE5CF88B321E030E001C007
:10046000220FDA95EAF7822B88BBDBCF85B321E038
:1004700030E001C0220FDA95EAF7822B85BBD1CF9D
:10048000CF93DF93C82FD62F0E947C01C23401F195
:100490002CF4C13491F0DF91CF910895C33419F158
:1004A000C434C9F722B381E090E001C0880FDA9527
:1004B000EAF78095822382BBEECF2BB381E090E0F8
:1004C00001C0880FDA95EAF7809582238BBBE3CFD2
:1004D00028B381E090E001C0880FDA95EAF78095B3
:1004E000822388BBD8CF25B381E090E001C0880F7C
:1004F000DA95EAF78095822385BBCDCFCF93DF9342
:10050000D82FC62F41E050E00E94AF01D23401F154
:100510003CF4D13459F090E080E0DF91CF91089520
:10052000D334C1F0D434B9F780B301C089B321E02A
:1005300030E00C2E01C0220F0A94EAF78223082E25
:10054000000C990B02C095958795CA95E2F7E5CF07
:1005500086B3EDCF83B3EBCF10BC87E689B98AB100
:1005600088618AB980B5866880BD08955F9BFECF9B
:100570008CB108955D9BFECF8CB90895CF93DF9326
:10058000EC018991811103C0DF91CF9108950E9400
:10059000BA02F7CF0F931F93CF93DF93EC018C0137
:1005A000060F171FC017D10731F41882DF91CF91C2
:1005B0001F910F9108950E94B6028993F3CF90E0A6
:1005C00080E00E94A30080E690E00E9441010E942A
:1005D000790170E060E081E090E00E9453018AE6DA
:1005E00090E00E94410170E060E082E090E00E94B3
:1005F00053018EE790E00E94410170E060E083E0EB
:1006000090E00E94530183E990E00E9441012FEFA6
:1006100089E698E1215080409040E1F700C0000059
:100620000E9476012FEF89E698E1215080409040AA
:10063000E1F700C000000E9479012FEF89E698E100
:10064000215080409040E1F700C00000E0CFF894D6
:02065000FFCFDA
:1006520048454C4C4F2041565200484434343738B8
:1006620030204C43442041504920464F52004156CD
:1006720052204D4943524F434F4E54524F4C4C45DA
:10068200525300425920505552414E4A4159204D31
:060692004F48414E00003C
:00000001FF
